:060000000A128A11832D93
:100B0600FC01FD0183010A128A11592EF0008B2D7A
:100B1600831203130C1E902D912D8B2D922D700890
:100B260099000800962D831203138C1E9B2D9C2D75
:100B3600962D9D2D1A08F0007008F1007108A32D5E
:100B46000800F3000310003003180130F4007308A6
:100B5600C038F2007208F40074080A128A11892556
:100B66000A128A1171080A128A1189250A128A1133
:100B76000800C52D0730F3007D30F200F20BC12DC1
:100B8600F30BC12D0130F0020030031CF103F1021A
:100B9600FF307106031DD12DFF307006031DD42DC5
:100BA600D52DBD2DD62D0800F600031000300318F4
:100BB6000130F9007608A038F4007408F9007908C5
:100BC6000A128A1189250A128A110A128A11952592
:100BD6000A128A11F4007408F7000A128A11952580
:100BE6000A128A11F4007408F8007708F400F50177
:100BF6000630FF000310F40DF50DFF0BFD2D7408F4
:100C0600FC007508FD003F307805F4007C0874048C
:100C1600FC007D08FD007D08F301F3077C08F20166
:100C2600F207152E0800F7000310003003180130F4
:100C3600F8000310003003180130F90003100030EB
:100C460003180130FA007708E038F4007408F80059
:100C56007208F5007108F40006300310F50CF40C68
:100C6600FF3E031D302E74087F39F6007608F90022
:100C760071083F39F4007408FA0078080A128A11DC
:100C860089250A128A1179080A128A1189250A12F7
:100C96008A117A080A128A1189250A128A1173089A
:100CA6000A128A1189250A128A1108000030831255
:100CB6000313A0000030A1000030A2000030A30002
:100CC600A030A4000F30A500031000300318013037
:100CD600A600A7010314A70D03308316031386008D
:100CE60081309900181598161813831203131813D8
:100CF6001816981783160313181283120313061374
:100D060086174B30FB007B08A600892E06188C2E12
:100D16008D2E542F8F2E8F2E061C922E932E8F2EB5
:100D2600942EF1010314F10D00300A128A11A42544
:100D36000A128A1183120313803086060130A80036
:100D46000030A90000302902093003192802031CCB
:100D5600AD2EAE2EB02ED02ED02E5830F1001B3038
:100D6600F2002608FB007B08F30028080A128A1105
:100D760016260A128A11013083120313A8070318D4
:100D8600A90A0030A90700302902093003192802F0
:100D9600031CCE2ECF2EB02ED02EF430F000013014
:100DA600F1000A128A11BC250A128A11DA2E831260
:100DB6000313A7010314A70D09302702031CE42E11
:100DC600E52EE72E182F182FE830F1000330F20039
:100DD6002608FB007B08F30027080A128A1116264C
:100DE6000A128A11F72EF72E8312031327080A1206
:100DF6008A11D7250A128A1103307302F3300319B8
:100E060072020318072F082FF72E092F83120313D8
:100E1600803086060130FB007B08A70709302702D1
:100E2600031C162F172FE72E182F0830FB007B0800
:100E3600A700A708031D202F212F232FDA2EDA2E35
:100E46005830F1001B30F2002608FB007B08F30047
:100E560027080A128A1116260A128A11332F332FEF
:100E66008312031327080A128A11D7250A128A1138
:100E76001B3073024E3003197202031C432F442F9A
:100E8600332F452F83120313803086060130A702C5
:100E9600A708031D4F2F502F232FDA2EDA2EDA2E16
:100EA600892E8618572F582F892E5A2F5A2F861C6F
:100EB6005D2F5E2F5A2F5F2FF1010314F10D0030C5
:100EC6000A128A11A4250A128A11831203134030CA
:100ED60086066D2F0130A8000030A90000302902D7
:100EE600093003192802031C792F7A2F7C2F9C2F97
:100EF6009C2F5830F1001B30F2002608FB007B08BF
:100F0600F30028080A128A1116260A128A110130DD
:100F160083120313A8070318A90A0030A907003093
:100F26002902093003192802031C9A2F9B2F7C2FB4
:100F36009C2F40308606A02FA02F01300A128A115E
:100F4600D7250A128A111A307302F4300319720275
:100F5600031CAE2FAF2FA02FB02F01308312031327
:100F6600A8000030A9000030290209300319280220
:100F7600031CBE2FBF2FC12FE32FE32FE830F10054
:100F86000330F2002608FB007B08F30028080A124B
:100F96008A1116260A128A11013083120313A80732
:100FA6000318A90A0030A9070030290209300319DD
:100FB6002802031CDF2FE02FC12FE32FE32FE32F9F
:100FC60001300A128A11D7250A128A1104307302D7
:100FD6004D30031972020318F12FF22FE32FF32F6E
:100FE60083120313403086066D2F6D2F892E892EAE
:0A0FF600892E892E0A128A110028A4
:02400E00323F3F
:00000001FF
