:060000000A128A11662EAF
:100CCC00FC01FD0183010A128A11212FF0006E2E06
:100CDC00831203130C1E732E742E6E2E752E700839
:100CEC0099000800792E831203138C1E7E2E7F2E02
:100CFC00792E802E1A08F0007008F1007108862EEB
:100D0C000800F3000310003003180130F4007308DE
:100D1C00C038F2007208F40074080A128A116C26AA
:100D2C000A128A1171080A128A116C260A128A1187
:100D3C000800F6000310003003180130F9007608A3
:100D4C00A038F4007408F90079080A128A116C268C
:100D5C000A128A110A128A1178260A128A11F400D0
:100D6C007408F7000A128A1178260A128A11F40004
:100D7C007408F8007708F400F5010630FF00031042
:100D8C00F40DF50DFF0BC52E7408FC007508FD0065
:100D9C003F307805F4007C087404FC007D08FD00ED
:100DAC007D08F301F3077C08F201F207DD2E080041
:100DBC00F7000310003003180130F8000310003066
:100DCC0003180130F9000310003003180130FA0049
:100DDC007708E038F4007408F8007208F500710820
:100DEC00F40006300310F50CF40CFF3E031DF82E36
:100DFC0074087F39F6007608F90071083F39F40061
:100E0C007408FA0078080A128A116C260A128A11E0
:100E1C0079080A128A116C260A128A117A080A12A7
:100E2C008A116C260A128A1173080A128A116C260E
:100E3C000A128A110800003083120313A00000303C
:100E4C00A1000030A2000030A300031000300318F2
:100E5C000130A400033083160313860081309900FF
:100E6C0018159816181383120313181318169817BD
:100E7C0083160313181283120313061386173230CA
:100E8C00FB007B08A4004A2F8312031306184F2F74
:100E9C00502F652F522F522F061C552F562F522F85
:100EAC00572FF1010314F10D00300A128A11872615
:100EBC000A128A1183120313803086064A2F861871
:100ECC00682F692F4A2F6B2F6B2F861C6E2F6F2F5D
:100EDC006B2F712F712F013083120313A50000307B
:100EEC00A60000302602093003192502031C7F2FAF
:100EFC00802F822FA42FA42F5830F1001B30F2002A
:100F0C002408FB007B08F30025080A128A11DE2650
:100F1C000A128A11013083120313A5070318A60ABB
:100F2C000030A60700302602093003192502031CE5
:100F3C00A02FA12F822FA42FA42FA42F01300A128F
:100F4C008A119F260A128A111A307302F43003197F
:100F5C007202031CB22FB32FA42FB42F01308312B3
:100F6C000313A5000030A600003026020930031937
:100F7C002502031CC22FC32FC52FE72FE72FE83004
:100F8C00F1000330F2002408FB007B08F300250875
:100F9C000A128A11DE260A128A11013083120313F7
:100FAC00A5070318A60A0030A60700302602093050
:100FBC0003192502031CE32FE42FC52FE72FE72F7E
:100FCC00E72F01300A128A119F260A128A11043067
:100FDC0073024D30031972020318F52FF62FE72F09
:100FEC00712F712F712F4A2F4A2F4A2F4A2F0A1215
:040FFC008A1100282E
:02400E00323F3F
:00000001FF
